:100000000C9462000C948A000C948A000C94180CD6
:100010000C94EB0B0C94BE0B0C948A000C948A008D
:100020000C948A000C948A000C948A000C948A0028
:100030000C948A000C94990B0C948A000C948A00FE
:100040000C94300A0C948A000C94FE090C94D80984
:100050000C948A000C948A000C948A000C948A00F8
:100060000C947A0A0C948A000000000024002700F7
:100070002A0000000000250028002B0000000008D6
:10008000000201000003040700000000000000005F
:10009000010204081020408001020408102001021F
:1000A00004081020040404040404040402020202EC
:1000B00002020303030303030000000023002600E1
:1000C0002900450C11241FBECFEFD8E0DEBFCDBF05
:1000D00023E0A4E5B1E001C01D92AE3BB207E1F719
:1000E00011E0A0E0B1E0EAE3F1E302C005900D9277
:1000F000A435B107D9F710E0C2E6D0E004C02197DB
:10010000FE010E947017C136D107C9F70E94C60CC4
:100110000C949B180C940000E0918E03F0918F03D7
:100120000280F381E02D309731F040919303682FE6
:100130008EE893E00994089508950895AF92BF92D0
:10014000CF92DF92EF92FF920F931F93CF93DF93A3
:100150006C017B018B01040F151FEB015E01AE18D2
:10016000BF08C017D10759F06991D601ED91FC91F4
:100170000190F081E02DC6010995892B79F7C50121
:10018000DF91CF911F910F91FF90EF90DF90CF9073
:10019000BF90AF900895FC01538D448D252F30E022
:1001A000842F90E0821B930B541710F0CF96089584
:1001B00001970895FC01918D828D981761F0A28DB1
:1001C000AE0FBF2FB11D5D968C91928D9F5F9F7377
:1001D000928F90E008958FEF9FEF08952FB7F894D6
:1001E00080916E0290916F02A0917002B0917102A5
:1001F0002FBF8093EC029093ED02A093EE02B09398
:10020000EF0284EE92E00E94DA0097FF26C02FB73B
:10021000F89480916E0290916F02A0917002B0915B
:1002200071022FBF4091EC025091ED026091EE02FD
:100230007091EF02841B950BA60BB70B4091E8025F
:100240005091E9026091EA027091EB0284179507E0
:10025000A607B707B0F28FEF9FEF0895FC01918DCD
:10026000828D981731F0828DE80FF11D858D90E019
:1002700008958FEF9FEF0895FC01918D228D892FB6
:1002800090E0805C9F4F821B91098F73992708959E
:1002900084EE92E00E943C0121E0892B09F420E0E9
:1002A000822F089580E090E0892B29F00E94480178
:1002B00081110C9400000895FC01A48DA80FB92FA2
:1002C000B11DA35ABF4F2C91848D90E001968F737E
:1002D0009927848FA689B7892C93A089B1898C919D
:1002E000837080648C93938D848D981306C00288EC
:1002F000F389E02D80818F7D80830895EF92FF92B6
:100300000F931F93CF93DF93EC0181E0888F9B8D38
:100310008C8D98131AC0E889F989808185FF15C0F2
:100320009FB7F894EE89FF896083E889F989808115
:100330008370806480839FBF81E090E0DF91CF91E4
:100340001F910F91FF90EF900895F62E0B8D10E006
:100350000F5F1F4F0F731127E02E8C8D8E110CC075
:100360000FB607FCFACFE889F989808185FFF5CFC0
:10037000CE010E945C01F1CFEB8DEC0FFD2FF11D42
:10038000E35AFF4FF0829FB7F8940B8FEA89FB89FD
:1003900080818062CFCFCF93DF93EC01888D88235B
:1003A000B9F0AA89BB89E889F9898C9185FD03C0D8
:1003B000808186FD0DC00FB607FCF7CF8C9185FFBD
:1003C000F2CF808185FFEDCFCE010E945C01E9CFA5
:1003D000DF91CF910895833081F028F4813099F036
:1003E0008230A9F008958730A9F08830C9F08430B0
:1003F000B1F4809180008F7D03C0809180008F7761
:1004000080938000089584B58F7784BD089584B566
:100410008F7DFBCF8091B0008F778093B0000895DF
:100420008091B0008F7DF9CFCF93DF93282F30E0FC
:10043000F901E458FF4F8491F901E057FF4FD4913F
:10044000F901EC55FF4FC491CC23A1F081110E941A
:10045000EB01EC2FF0E0EE0FFF1FE854FF4FA591EA
:10046000B491EC91ED2381E090E009F480E0DF911C
:10047000CF91089580E090E0FACF1F93CF93DF9360
:10048000282F30E0F901E458FF4F8491F901E0573B
:10049000FF4FD491F901EC55FF4FC491CC23A9F043
:1004A000162F81110E94EB01EC2FF0E0EE0FFF1FE1
:1004B000EE58FF4FA591B4918FB7F894EC911111BC
:1004C00008C0D095DE23DC938FBFDF91CF911F91C1
:1004D0000895DE2BF8CFCF93DF9390E0FC01E05737
:1004E000FF4F24918C559F4FFC0184918823D1F0BC
:1004F00090E0880F991FFC01E859FF4FA591B49136
:10050000FC01EE58FF4FC591D491623071F49FB752
:10051000F8943C91822F809583238C93E8812E2B35
:1005200028839FBFDF91CF9108958FB7F894EC9106
:100530002E2B2C938FBFF6CF8E50806480937C003F
:1005400080917A00806480937A0080917A0086FDA1
:10055000FCCF809178009091790008953FB7F8948E
:100560008091BC019091BD01A091BE01B091BF01ED
:1005700026B5A89B05C02F3F19F00196A11DB11DFE
:100580003FBFBA2FA92F982F8827BC01CD01620F3A
:10059000711D811D911D42E0660F771F881F991FF5
:1005A0004A95D1F708958F929F92AF92BF92CF92C2
:1005B000DF92EF92FF924B015C010E94AE026B0151
:1005C0007C010E94AE026C197D098E099F09683E6C
:1005D000734081059105A8F321E0821A9108A108D2
:1005E000B10888EEC80E83E0D81EE11CF11C81140E
:1005F0009104A104B10429F7FF90EF90DF90CF9010
:10060000BF90AF909F908F90089520919801260FF2
:100610003327331F21323105ECF42091BA02FC015B
:1006200090E080E0243069F082E00895A091980184
:100630002191AC0148585E4FA40FB52FB11D2C93EA
:100640000196861798F380919801680F609398013E
:1006500080E0089581E008951092BA0281E08093CD
:10066000B9021092940261E082E10E943D0261E0D1
:1006700083E10E943D02E9EBF0E080818E7F808380
:1006800080818D7F808388E48093B80085E48093A7
:10069000BC000895CF93DF9391E090937701882376
:1006A000B9F0C091B800D091BA008091BC008A7BAB
:1006B0008093BC0060E082E10E943D0260E083E143
:1006C0000E943D020E942C03D093BA00C093B80050
:1006D000DF91CF9108950895E091730280917202A5
:1006E000E81730F4F0E0EC58FD4F808190E0089579
:1006F0008FEF9FEF089590917302809172022FEF18
:100700003FEF981748F4E92FF0E0EC58FD4F2081B7
:1007100030E09F5F90937302C90108958091720247
:1007200090917302891B990B0895CF92DF92EF92FB
:10073000FF920F931F93CF93DF937C01CB018A012C
:100740002091E302222389F0EB016B01C40ED51E38
:10075000CC15DD0569F06991D701ED91FC9101900F
:10076000F081E02DC7010995F3CF642F0E940503A6
:10077000C801DF91CF911F910F91FF90EF90DF9013
:10078000CF900895CF93DF931F92CDB7DEB76983E3
:100790002091E3022223F9F02091E002203258F068
:1007A00021E030E0FC013383228390E080E00F9071
:1007B000DF91CF9108958091E102E82FF0E0E054BD
:1007C000FD4F998190838F5F8093E1028093E002D7
:1007D00081E090E0ECCF61E0CE0101960E9405033C
:1007E000F7CF90E080E00895862F0C9414022FB785
:1007F000F89460916E0270916F02809170029091F6
:1008000071022FBF089584E2809363018EE3809389
:10081000640181E08093650190912202809123021E
:10082000909366018093670190912002809121024C
:10083000909368018093690190911E0280911F023C
:1008400090936A0180936B0190911C0280911D022C
:1008500090936C0180936D018091580290E1899F83
:100860009001112480915B02822B80936E01809114
:10087000530290E1899F9001112480915602822BAE
:1008800080936F018091700190916201992309F426
:1008900048C08160809370018091700190915102F5
:1008A000992309F440C082608093700180917001A7
:1008B000909152029923C9F18460809370018091D4
:1008C0004E02809371018091610180937201809149
:1008D00030028093730190914F0280915002909367
:1008E000740180937501E5E6F1E080E0919189273C
:1008F00091E0E637F907D1F78093760144E150E0C3
:1009000063E671E084EE92E00E949E0010925B022A
:1009100010925802109256021092530210926201E5
:1009200008958E7FB7CF8D7FBFCF8B7FC6CFCF92FD
:10093000DF92EF92FF920F931F93CF93DF930E946A
:10094000AE026B017C0180915D0190915E01A091EE
:100950005F01B0916001C816D906EA06FB0698F45B
:100960008091590190915A01A0915B01B0915C0175
:100970000196A11DB11D8093590190935A01A09336
:100980005B01B0935C01C0925D01D0925E01E09288
:100990005F01F09260018091590190915A01A091FC
:1009A0005B01B0915C019C01AD0160E070E080E012
:1009B00090E000E20E944517B22FA32FF42F970179
:1009C0008601BC29A12BFE29532B2B2F3A2F4F2F09
:1009D000DF91CF911F910F91FF90EF90DF90CF901B
:1009E0000895613071F028F0633081F0643091F047
:1009F000089561E085E00E943D0281E080933D0220
:100A000008956093620110923D02089581E0809301
:100A10006201089580915202811105C081E08093A6
:100A200052020E94030464E670E080E090E00E94BD
:100A3000D30260E085E00E943D0264E670E080E061
:100A400090E00E94D30260E08CE00C943D02CF92D3
:100A5000DF92EF92FF9285E10E949C02BC01990F08
:100A6000880B990B0E9415156B017C0120E030E08A
:100A70004DE453E40E94401730E020E0181614F5CE
:100A800020E030E04DE453E4C701B6010E94321685
:100A900020E030E04CE052E40E949F1620E030E07D
:100AA00048EC52E40E9474150E9411174AE0469FD8
:100AB0009001479F300D1124293E83E0380710F044
:100AC00028EE33E040910001509101018091020134
:100AD00090910301A0910401B0910501841B950B35
:100AE000A109B109820F931FA11DB11D80930201BD
:100AF00090930301A0930401B093050123E0B69500
:100B0000A795979587952A95D1F7909301018093A2
:100B10000001BC0190E080E00E94131520E030E06D
:100B200040E251E40E949F160E94111760936101F8
:100B300020E030E04DE453E4C701B6010E940E15F9
:100B400018160CF46EC080915701909158010196CF
:100B500090935801809357018091570190915801CB
:100B600089970CF463C061E087E00E943D0268EC65
:100B700070E080E090E00E94D30260E087E00E9495
:100B80003D0268EC70E080E090E00E94D30261E0FA
:100B900087E00E943D0268EC70E080E090E00E94F7
:100BA000D30260E087E00E943D0268EC70E080E0E4
:100BB00090E00E94D30261E087E00E943D0268EC71
:100BC00070E080E090E00E94D30260E087E00E9445
:100BD0003D0268EC70E080E090E00E94D30261E0AA
:100BE00087E00E943D0268EC70E080E090E00E94A7
:100BF000D30260E087E00E943D0268EC70E080E094
:100C000090E00E94D30260E08CE00E943D0268EE1A
:100C100073E080E090E0FF90EF90DF90CF900C9435
:100C2000D302109258011092570196CFFF90EF9087
:100C3000DF90CF9008958091FF0181112DC081E058
:100C40008093FF010E9497042093E7013093E8010D
:100C50004093E9015093EA016093EB017093EC013A
:100C60008093ED019093EE0124523A4F4F4F5F4F26
:100C70006F4F7F4F8F4F9F4F2093C7013093C80115
:100C80004093C9015093CA016093CB017093CC018A
:100C90008093CD019093CE01089580911902811126
:100CA0002DC081E0809319020E94970420930102D5
:100CB00030930202409303025093040260930502B2
:100CC00070930602809307029093080224523A4FD1
:100CD0004F4F5F4F6F4F7F4F8F4F9F4F2093CF01ED
:100CE0003093D0014093D1015093D2016093D3014E
:100CF0007093D4018093D5019093D601089580918B
:100D0000000281112DC081E0809300020E949704AF
:100D10002093EF013093F0014093F1015093F201E1
:100D20006093F3017093F4018093F5019093F601C1
:100D300024523A4F4F4F5F4F6F4F7F4F8F4F9F4F10
:100D40002093D7013093D8014093D9015093DA0111
:100D50006093DB017093DC018093DD019093DE01F1
:100D6000089580911A0281112DC081E080931A02AA
:100D70000E9497042093090230930A0240930B02C9
:100D800050930C0260930D0270930E0280930F0239
:100D90009093100224523A4F4F4F5F4F6F4F7F4F47
:100DA0008F4F9F4F2093DF013093E0014093E1018B
:100DB0005093E2016093E3017093E4018093E501B5
:100DC0009093E6010895FF920F931F93CF93DF93C3
:100DD0008C01D80117968C91179720915601159682
:100DE0009C9115973091560116964C911697C0918B
:100DF0005601C095C4239323C92B8227FC2EF822C9
:100E00008091560117968C9317971896CD91DC9187
:100E10002097B1F08B81982F9F2171F0909156010E
:100E2000892391E009F490E0909355018C8180939F
:100E30005401E881F98109950D80DE81C02DE8CF4C
:100E40009BB3F8018481982351F09BB3892B8BBB12
:100E50000190F081E02D808180935601BACFDF911F
:100E6000CF911F910F91FF900895CF93DF93FC01D5
:100E7000DB0112962C93129711965C934E93C281CC
:100E8000D381888113969C911397892B888312961E
:100E90008C911297982F9D7F913031F49581139604
:100EA0002C911397922B95838150823028F4868160
:100EB00013969C91892B8683809168009481892B5D
:100EC00080936800DF91CF9108959F92AF92BF9277
:100ED000CF92DF92EF92FF920F931F93CF93DF9306
:100EE000C82FD0E0FE01EC55FF4F249121110DC019
:100EF0008FEFDF91CF911F910F91FF90EF90DF90D7
:100F0000CF90BF90AF909F9008952250330B10E088
:100F100000E02330310538F4220F331FD901A65DDC
:100F2000BE4F0D911C916B01982ED801ED91FC9153
:100F30001197808117968C9317971896AD90BC9057
:100F40007501A114B10421F4F12CE12C11C07C0134
:100F5000F7018481981208C022E0A601B701C801F8
:100F60000E94350780E0C5CF85819681009779F78B
:100F700087E090E00E947617DC0111961C921E9289
:100F800012961C921297892B09F4B2CF14969C9258
:100F9000149782E012968C93129716961C921E92CA
:100FA0001597FE01E057FF4FE4911396EC931397CA
:100FB000AB2859F4F801B187A08722E0A601BD0152
:100FC000C8010E94350781E094CFF701B683A5835D
:100FD000F4CFCF92DF92EF92FF920F931F93CF93B4
:100FE000DF93C0918D0391E09093E302C093E202FE
:100FF0001092E1021092E002682F81E893E00E94D3
:10100000C203D091E002D13208F091C00E94AE023A
:101010006B017C018091BA02811164C082E08093EF
:10102000BA021092B9028FEF8093B8021092B70201
:10103000D093B602A0ECB2E0E6E9F2E080E0D8138B
:10104000EDC01092950280919502CC0FC82BC093F1
:10105000950280919402813009F0E4C010929402CC
:101060000E94AE026B017C01809195028093BB00CF
:101070008091BC029091BD02A091BE02B091BF02CE
:10108000892B8A2B8B2B99F00E94AE020091BC0217
:101090001091BD022091BE023091BF026C197D09F2
:1010A0008E099F090617170728073907E0F1809175
:1010B000BC0083FDD9CF85EC8093BC000E94AE02BA
:1010C0006B017C018091BA02823009F4ADC080913D
:1010D000B8028F3F61F18091B802803241F1809176
:1010E000B80225C08091BC029091BD02A091BE02C1
:1010F000B091BF02892B8A2B8B2B09F48BCF0E94D6
:10110000AE020091BC021091BD022091BE0230914E
:10111000BF026C197D098E099F090617170728075A
:10112000390708F077CF8091BB020E944A031092E2
:10113000E1021092E0021092E302C0918D030E943E
:10114000AE026B017C018091BA0281118FC081E0F7
:101150008093BA028093B9029FEF9093B8021092E5
:10116000B70292E09093B602809395028091950227
:10117000CC0FC82BC093950280919402813009F066
:10118000B9C0109294020E94AE026B017C01809162
:1011900095028093BB008091BC029091BD02A0910A
:1011A000BE02B091BF02892B8A2B8B2BA1F00E942B
:1011B000AE020091BC021091BD022091BE0230919E
:1011C000BF026C197D098E099F09061717072807AA
:1011D000390708F46CC08091BC0083FDD8CF85EC42
:1011E0008093BC000E94AE026B017C018091BA0228
:1011F000813009F481C08091B702833008F09EC02D
:101200008091B702E6E9F2E0A4E7B2E090E0981737
:1012100009F452C021912D939F5FF9CF9D91919335
:101220008F5F0DCF85EE48CF8091BC029091BD02BB
:10123000A091BE02B091BF02892B8A2B8B2B09F49F
:1012400041CF0E94AE020091BC021091BD022091DC
:10125000BE023091BF026C197D098E099F090617E5
:1012600017072807390708F02DCF5DCF8091BC0202
:101270009091BD02A091BE02B091BF02892B8A2B32
:101280008B2B09F460CF0E94AE020091BC0210913A
:10129000BD022091BE023091BF026C197D098E09FA
:1012A0009F09061717072807390708F04CCF8091C8
:1012B000BB020E944A0380E0109273028093720284
:1012C00081E893E00E947B03EC0181E893E00E94B7
:1012D0007B0320E0C22BD82B81E893E00E947B03A4
:1012E000CE01DF91CF911F910F91FF90EF90DF9092
:1012F000CF90089585EE74CF8091BC029091BD028D
:10130000A091BE02B091BF02892B8A2B8B2B09F4CE
:101310006DCF0E94AE020091BC021091BD022091DF
:10132000BE023091BF026C197D098E099F09061714
:1013300017072807390708F059CFB9CF83E062CFE4
:1013400085ED8093BC008091BC029091BD02A0917C
:10135000BE02B091BF020796A11DB11D23E0B69554
:10136000A795979587952A95D1F72091BC0024FDE4
:1013700003C01092BA0208954091BC025091BD0280
:101380006091BE027091BF02452B462B472B69F33B
:101390000097A105B10541F025E32A95F1F700007A
:1013A0000197A109B109E1CF8091BB020C944A03D6
:1013B0001F920F920FB60F9211242F933F934F93CA
:1013C0005F936F937F938F939F93AF93BF93EF93AD
:1013D000FF9384EE92E00E945C01FF91EF91BF9138
:1013E000AF919F918F917F916F915F914F913F91BD
:1013F0002F910F900FBE0F901F9018951F920F9274
:101400000FB60F9211242F938F939F93EF93FF9317
:10141000E091F402F091F5028081E091FA02F091FE
:10142000FB0282FD1BC090818091FD028F5F8F7354
:101430002091FE02821741F0E091FD02F0E0EC51B4
:10144000FD4F958F8093FD02FF91EF919F918F91BA
:101450002F910F900FBE0F901F9018958081F4CFA1
:101460001F920F920FB60F9211242F933F938F93D9
:101470009F93AF93BF9380916E0290916F02A09162
:101480007002B09171023091BB0123E0230F2D3720
:1014900058F50196A11DB11D2093BB0180936E02EA
:1014A00090936F02A0937002B09371028091BC017F
:1014B0009091BD01A091BE01B091BF010196A11D07
:1014C000B11D8093BC019093BD01A093BE01B09368
:1014D000BF01BF91AF919F918F913F912F910F903D
:1014E0000FBE0F901F90189526E8230F0296A11D9E
:1014F000B11DD2CF1F920F920FB60F9211242F93CE
:101500003F934F935F936F937F938F939F93AF938B
:10151000BF93EF93FF938091B900887F803609F4E1
:101520004AC0F0F5883209F4A7C018F5803109F4F3
:101530009BC0B8F4882309F4F9C0883009F494C03A
:10154000FF91EF91BF91AF919F918F917F916F919B
:101550005F914F913F912F910F900FBE0F901F9071
:101560001895883109F488C0803251F78093B80209
:1015700014C0803409F49DC040F48033B9F388333B
:10158000F9F68093B80285ECB0C0803509F485C0C7
:10159000883509F496C0883499F60E94A009D0CF06
:1015A000883909F48CC038F5883729F050F488362A
:1015B00011F0803729F683E08093BA021092BA01C5
:1015C00057C0883809F47BC0803919F0803809F099
:1015D000B7CF8091BA01803208F071C0E091BA01B2
:1015E00081E08E0F8093BA018091BB00F0E0E65657
:1015F000FE4F80833DC0803B39F0E0F4803A09F42F
:1016000079C0883A09F09CCF84E08093BA021092A6
:10161000990110929801E091C201F091C3010995DE
:101620008091980181110FC081E080939801109200
:10163000780109C0803C09F4A6CF883C09F4A3CF07
:10164000883B09F07DCFE091990181E08E0F809376
:101650009901F0E0E858FE4F80818093BB009091A3
:1016600099018091980129C0809195028093BB00D7
:1016700085EC8093BC0064CF9091B7028091B60254
:10168000981758F5E091B70281E08E0F8093B7026A
:10169000F0E0EA56FD4F8081E9CFE091B70281E0AA
:1016A0008E0F8093B7028091BB00F0E0EA56FD4FA9
:1016B00080839091B7028091B6029817C8F285E8AE
:1016C000D8CFE091B70281E08E0F8093B70280916E
:1016D000BB00F0E0EA56FD4F80838091B902811192
:1016E0005CCF81E08093940284EA8093BC001092E6
:1016F000BA0226CF85EC8093BC001092BA0280918A
:10170000BA01803230F4E091BA01F0E0E656FE4FC3
:1017100010826091BA0170E0E091C001F091C101C6
:101720008AE991E009951092BA010ACF1092B802A5
:1017300034CF1F920F920FB60F9211242F933F9325
:101740004F935F936F937F938F939F93AF93BF93C9
:10175000EF93FF93F0E0E0E00995FF91EF91BF91E7
:10176000AF919F918F917F916F915F914F913F9139
:101770002F910F900FBE0F901F9018951F920F92F0
:101780000FB60F9211242F933F934F935F936F9354
:101790007F938F939F93AF93BF93EF93FF93E091CA
:1017A0009C03F0919D038081809356018CE993E026
:1017B0000E94E306FF91EF91BF91AF919F918F91AE
:1017C0007F916F915F914F913F912F910F900FBE3D
:1017D0000F901F9018951F920F920FB60F92112421
:1017E0002F933F934F935F936F937F938F939F9329
:1017F000AF93BF93EF93FF93E091A603F091A703FC
:1018000080818093560186EA93E00E94E306FF916F
:10181000EF91BF91AF919F918F917F916F915F9168
:101820004F913F912F910F900FBE0F901F901895E1
:101830001F920F920FB60F9211242F933F934F9345
:101840005F936F937F938F939F93AF93BF93EF9328
:10185000FF93E091B003F091B10380818093560132
:1018600080EB93E00E94E306FF91EF91BF91AF916F
:101870009F918F917F916F915F914F913F912F91A8
:101880000F900FBE0F901F901895E4EEF2E01382B8
:10189000128288EE93E0A0E0B0E084839583A68373
:1018A000B78324E331E03183208325EC30E03587B2
:1018B000248724EC30E03787268720EC30E0318B1A
:1018C000208B21EC30E0338B228B22EC30E0358B07
:1018D000248B26EC30E0378B268B118E128E138EE4
:1018E000148EE1E8F3E01382128284839583A68349
:1018F000B78386E491E0918380838AE580938D03AA
:10190000ECEBF0E085919491E0EBF3E09183808340
:101910008BE690E09383828381E084831582168234
:1019200011861086EEEBF0E025913491E6EAF3E0C3
:10193000318320832CE630E03383228392E094834A
:101940001582168211861086E0ECF0E02591349124
:10195000ECE9F3E0318320832DE630E0338322830A
:1019600024E024831582168211861086EEE8F3E0C7
:101970002AE031E031832083928313829FE79583AD
:10198000178216821186108684830895CF93DF9381
:10199000CDB7DEB7EB970FB6F894DEBF0FBECDBF65
:1019A000789484B5826084BD84B5816084BD85B53A
:1019B000826085BD85B5816085BD80916E00816046
:1019C00080936E00109281008091810082608093EC
:1019D00081008091810081608093810080918000EE
:1019E0008160809380008091B10084608093B10019
:1019F0008091B00081608093B00080917A00846013
:101A000080937A0080917A00826080937A0080913E
:101A10007A00816080937A0080917A008068809358
:101A20007A001092C10061E08BE00E946B0261E0DD
:101A300083E00E946B0261E089E00E946B0261E03A
:101A40008AE00E946B0261E085E00E946B0262E026
:101A500084E00E946B0261E088E00E946B0261E01A
:101A60008CE00E946B0261E087E00E946B0261E003
:101A70008DE00E946B0261E086E00E946B0261E0F3
:101A80008CE00E943D0262E080E10E946B0262E015
:101A900081E10E946B0262E08EE00E946B0262E0D4
:101AA0008FE00E946B0262E082E00E946B0264E6BB
:101AB00070E080E090E00E94D30264E670E080E095
:101AC00090E00E94D3021092730210927202109260
:101AD000E1021092E0020E942C038CE990E09093C6
:101AE000C3018093C2018DE990E09093C10180937E
:101AF000C00104E110E00E94270501501109D9F747
:101B000061E086E00E943D02E0918E03F0918F0338
:101B100081EF94E093838283848195818F609583A4
:101B2000848380ED97E09587848761EB76E080E1A0
:101B30000E9465076FE776E081E10E9465076DE42A
:101B400076E08EE00E9465076BE176E08FE00E9410
:101B50006507E091F402F091F50282E08083E09164
:101B6000F002F091F1021082E091F202F091F302A2
:101B70008FEC80831092FC02E091F802F091F90260
:101B800086E08083E091F602F091F7028081806127
:101B90008083E091F602F091F70280818860808373
:101BA000E091F602F091F702808180688083E091F5
:101BB000F602F091F70280818F7D808382E5809329
:101BC000B00081E08093B10092ED9093B3009093C8
:101BD000B40090E190938100109280008093C60140
:101BE00080E990E09093C5018093C40190938700B1
:101BF0008093860081E18093810061E089E00E940A
:101C00006B02809180008068809380008091C40185
:101C10009091C501B0E0A0E0B695A79597958795FE
:101C200090938900809388008091C60180618093A1
:101C3000810061E08AE00E946B02809180008062F6
:101C4000809380008091C4019091C501B0E0A0E034
:101C5000B695A7959795879590938B0080938A006A
:101C60008091C60180618093810061E085E00E94DF
:101C70003D0268EC70E080E090E00E94D30260E0FA
:101C800085E00E943D0268EC70E080E090E00E94F8
:101C9000D30261E085E00E943D0268EC70E080E0E4
:101CA00090E00E94D30260E085E00E943D0268EC73
:101CB00070E080E090E00E94D30261E085E00E9445
:101CC0003D0268EC70E080E090E00E94D30260E0AA
:101CD00085E00E943D028E010F5F1F4F18A70FA3E2
:101CE0009E012D5E3F4F3AA729A72FB7F894809108
:101CF0006E0290916F02A0917002B09171022FBF9D
:101D00008C019D0140E050E0BA018BA71CA7ADA754
:101D10003EA74FA758AB69AB7AAB8093660210938E
:101D20006702A09368023093690210926A021092CF
:101D30006B0210926C0210926D02A090DF01B090C5
:101D4000E001C090E101D090E201E090E301F09069
:101D5000E4010091E5011091E6012BA53CA54DA5FC
:101D60005EA560E070E080E090E00E94671719F0E7
:101D700010F010921A02A090D701B090D801C09034
:101D8000D901D090DA01E090DB01F090DC01009104
:101D9000DD011091DE012BA53CA54DA55EA560E0FF
:101DA00070E080E090E00E94671719F010F0109248
:101DB0000002A090CF01B090D001C090D101D0908E
:101DC000D201E090D301F090D4010091D50110919F
:101DD000D6012BA53CA54DA55EA560E070E080E096
:101DE00090E00E94671719F010F010921902A0906D
:101DF000C701B090C801C090C901D090CA01E0905D
:101E0000CB01F090CC010091CD011091CE012BA51A
:101E10003CA54DA55EA560E070E080E090E00E94EA
:101E2000671719F010F01092FF01B091F701A0911F
:101E3000F801F091F901E091FA011091FB011BAB5F
:101E40002091FC012FAB3091FD0139AF4091FE0193
:101E50004BAF2BA53CA54DA55EA560E070E080E0F2
:101E600090E0AB2EBA2ECF2EDE2EE12EFFA809ADCC
:101E70001BAD0E94671720F4109200021092FF0120
:101E800020901102309012024090130250901402E0
:101E900060901502709016028090170290901802C0
:101EA0002BA53CA54DA55EA560E070E080E090E02C
:101EB00051016201730184010E94671720F410929E
:101EC0001A021092190280911A02882309F46EC036
:101ED00080911902882309F469C02BA53CA54DA562
:101EE0005EA560E070E080E090E051016201730166
:101EF00084010E94671709F008F458C08091060118
:101F0000882391F180911B0281112EC0209109023A
:101F100030910A0240910B0250910C0260910D0227
:101F200070910E02A0900102B0900202C0900302D4
:101F3000D0900402E0900502F090060200910702A2
:101F40001091080280910F02909110020E94671771
:101F500009F008F477C4809122029091230201963F
:101F6000909323028093220210921B022BA53CA582
:101F70004DA55EA560E070E080E090E028513C4F08
:101F80004F4F5F4F6F4F7F4F8F4F9F4F20931102E7
:101F9000309312024093130250931402609315027F
:101FA000709316028093170290931802809100029A
:101FB000882309F472C08091FF01882309F46DC061
:101FC0002BA53CA54DA55EA560E070E080E090E00B
:101FD000AB2EBA2ECF2EDE2EEBA8FFA809AD1BAD7F
:101FE0000E94671709F008F458C080910701882300
:101FF00091F180911B0281112EC02091EF0130914F
:10200000F0014091F1015091F2016091F301709162
:10201000F401A090E701B090E801C090E901D090F0
:10202000EA01E090EB01F090EC010091ED011091DC
:10203000EE018091F5019091F6010E94671709F079
:1020400008F40AC480911E0290911F020196909399
:102050001F0280931E0210921B022BA53CA54DA5CA
:102060005EA560E070E080E090E028513C4F4F4F6B
:102070005F4F6F4F7F4F8F4F9F4F2093F7013093EC
:10208000F8014093F9015093FA016093FB017093BA
:10209000FC018093FD019093FE0184EE92E00E948A
:1020A0003C01882309F443C0AFA1B8A5E4E11D9227
:1020B000EA95E9F70E94EE0097FD39C0CC97D1F779
:1020C0008E010F5F1F4F78010E94EE0097FFCEC375
:1020D000FE0175969F01D8018D918D01D9018D93D7
:1020E0009D0149A55AA540175107A9F79F012F5EE9
:1020F0003F4F80E0919189272E173F07D9F79EA186
:10210000891315C08D898111BBC3109223021092CF
:102110002202109221021092200210921F021092AD
:102120001E0210921D0210921C021092510280E1B8
:102130000E9414021C018EE00E9414022C0181E115
:102140000E9414023C018FE00E9414024C0184E0C2
:102150000E941402232839F480915B028F3018F416
:102160008F5F80935B02452839F4809158028F304D
:1021700018F48F5F80935802672839F480915602D3
:102180008F3018F48F5F80935602892839F480913C
:1021900053028F3018F48F5F8093530280915B025B
:1021A00020912E0230912F02820F932F911D2091AA
:1021B0005C02821B910990932F0280932E02BC0136
:1021C000769567957695679578AF6FAB60935C026F
:1021D0008091580220902A0230902B0240902C02CD
:1021E00050902D02280E311C411C511C8091590227
:1021F00090915A02281A390A4108510820922A025D
:1022000030922B0240922C0250922D0262E05694A2
:102210004794379427946A95D1F730925A022092C6
:102220005902809156022091280230912902820F92
:10223000932F911D20915702821B9109909329029F
:1022400080932802DC01B695A795B695A795BAAFFD
:10225000A9AFA0935702209153028091240290913C
:102260002502A0912602B0912702820F911DA11D87
:10227000B11D2091540230915502821B930BA1098C
:10228000B1098093240290932502A0932602B09373
:1022900027028C019D01E2E0369527951795079559
:1022A000EA95D1F70BAB1CAB2DAB3EAB10935502AF
:1022B0000093540284E10E949C02409139025091A3
:1022C0003A0260913B0270913C0200913102109100
:1022D00032022091330230913402401B510B620BC9
:1022E000730B883911E0910710F087E991E0480FEE
:1022F000591F611D711D4093390250933A0260933A
:102300003B0270933C02CB01BA014AE09695879557
:10231000779567954A95D1F74B015C01609331023F
:102320009092320280933302B092340210923502BE
:102330001092360210923702109238020E94131542
:1023400020E030E04BEF53E40E94741520E030ECC5
:102350004FE754E40E949F1620E030E040E05FE346
:102360000E9474150E9411176093300290906502CC
:102370009110AFC06090080170900901A0904602D2
:10238000B0904702C0904802D0904902E0904A02C3
:10239000F0904B0200914C0210914D022BA53CA5F0
:1023A0004DA55EA560E070E080E090E00E946717B8
:1023B00049F040F084E00E94140299249394892B00
:1023C00009F0912C84E00E941402892B01F52BA5C1
:1023D0003CA54DA55EA560E070E080E090E0245D46
:1023E0003E4F4F4F5F4F6F4F7F4F8F4F9F4F209309
:1023F000460230934702409348025093490260934B
:102400004A0270934B0280934C0290934D029920A4
:10241000E1F1A0903E02B0903F02C0904002D09007
:102420004102E0904202F090430200914402109178
:1024300045022BA53CA54DA55EA560E070E080E0BF
:1024400090E00E94671709F100F121E0209351020A
:10245000930140E050E0ABA4BCA4CDA4DEA4E12CE9
:10246000F12C00E010E00E945E1720933E023093B2
:102470003F024093400250934102609342027093A6
:1024800043028093440290934502A0903E02B09094
:102490003F02C0904002D0904102E0904202F09092
:1024A000430200914402109145022BA53CA54DA585
:1024B0005EA560E070E080E090E00E94671708F0A1
:1024C0001FC261E088E00E943D0261E085E00E9459
:1024D0003D02A0905D02B0905E02C0905F02D0907D
:1024E0006002E0906102F09062020091630210913C
:1024F00064022BA53CA54DA55EA560E070E080E0E0
:1025000090E00E94671709F008F481C00E94270537
:1025100087E00E94E907BC0190E080E00E9413156B
:102520002AE037ED43EA5CE30E94741523E333E9C4
:1025300048E853E40E94321627E236E041E05EE3C9
:102540000E94321620E030E040E251E40E9474150F
:102550000E9411177093500260934F0286E00E9410
:10256000E907BC0190E080E00E9413152AE037EDF6
:1025700043EA5CE30E94741523E333E948E853E43B
:102580000E94321627E236E041E05EE30E943216F6
:102590000E94111760934E022BA53CA54DA55EA588
:1025A00060E070E080E090E026503F4F4F4F5F4F7B
:1025B0006F4F7F4F8F4F9F4F20935D0230935E028E
:1025C00040935F02509360026093610270936202D5
:1025D00080936302909364023FA930935B02209240
:1025E000580249AD409356025BA950935302809123
:1025F0005202811102C00E94030410925B021092E9
:102600005802109256021092530210925102809179
:102610008E0390918F03DC01ED91FC910280F38198
:10262000E02D609190030995182F80918E03909171
:102630008F03DC01ED91FC910190F081E02D099573
:102640006B018091920381FF65C1209194033091C9
:102650009503A601421B530BE0918E03F0918F036B
:10266000268137814217530708F460C18D7F80931C
:102670009203809193038F3709F4C4C1E0918E03D4
:10268000F0918F038481958183709927892B89F13B
:102690008091920387FF15C08091960390919703D4
:1026A0009601281B390BC9012285338582179307B0
:1026B00040F082E00E948C00809192038F7780939B
:1026C00092038091920383FF14C0E0918E03F091F6
:1026D0008F032091960330919703A601421B530B61
:1026E0009A01428553852417350718F0877F809318
:1026F0009203E0918E03F0918F03848182FF1CC0CE
:1027000080919203982F91701917B1F082FF14C035
:1027100085FD12C02091980330919903A601421BB8
:10272000530B248535854217530730F08062809320
:10273000920384E00E948C00E0918E03F0918F035D
:10274000848183FF1DC080919203982F9170191787
:10275000B9F082FF15C086FFF6C080919A03909170
:102760009B039601281B390B80899189281739070B
:1027700038F085E00E948C00D0929B03C0929A03AF
:1027800080919303181709F4D1C01093930380919B
:102790009203982F9170191751F0D0929903C0921B
:1027A000980384608093920380E00E948C00609183
:1027B0009203862F81701813B9C0E0918E03F091B7
:1027C0008F03848195819C0123703327232B29F06B
:1027D00062FDCAC0677F609392032091920325FF38
:1027E00007C0E0918E03F0918F03848186FD08C1BC
:1027F00026FF07C0E0918E03F0918F03848187FD4F
:10280000FFC023FF07C0E0918E03F0918F03848106
:1028100084FDF6C080E024FF0CC0E0918E03F091AF
:102820008F038481958135E0969587953A95E1F7F8
:1028300081702B7820939203811178C081E00E94EF
:102840008C0074C080912002909121020196909397
:1028500021028093200288CB80911C0290911D025E
:10286000019690931D0280931C02F5CBD7018D93A6
:102870007D01E9A5FAA5EA17FB0709F025CC28CCCC
:10288000813051F48E8950E3859FC00111249093CB
:102890000901809308014BCC823059F46E89609312
:1028A0006502662321F088E00E943D0240CC60E092
:1028B000FACF833029F46E8960933D0285E0F4CF2E
:1028C000843009F0A2C081E09E89911101C080E0AE
:1028D0008093070181E09F89911101C080E080937E
:1028E000060125CC6E898DE0DFCF873009F01FCC43
:1028F00081E09E89911101C080E080931B0217CC7A
:1029000060E088E00E943D0280913D028111E1CDAE
:1029100060E0DCCD90919303191709F4AACE826090
:1029200080939203D0929503C092940360E070E08C
:10293000672B09F4DAC90E944801882309F4D5C934
:102940000E940000D2C92091980330919903A601FA
:10295000421B530B268537854217530708F410CFC7
:1029600080648093920305CF20919803309199035E
:10297000A601421B530B208531854217530708F0EF
:1029800029CF81FF05C063FD0BC06F7E609392036A
:102990008091920384FF1EC0877F809392031DCF96
:1029A00080919603909197039601281B390B82859D
:1029B00093852817390748F767FF03C06F7760933F
:1029C00092038091920380618093920383E00E943E
:1029D0008C00DECFD0929703C0929603982F986018
:1029E00090939203E0918E03F0918F0324813581BF
:1029F00030FF02C08868D1CF82E00E948C00EDCE0B
:102A000081E017CF1093930391CF853009F46ACFFB
:102A1000863009F06ACF6E8987E046CF0E94501554
:102A200008F481E00895E89409C097FB3EF490957E
:102A30008095709561957F4F8F4F9F4F9923A9F097
:102A4000F92F96E9BB279395F69587957795679526
:102A5000B795F111F8CFFAF4BB0F11F460FF1BC06A
:102A60006F5F7F4F8F4F9F4F16C0882311F096E9FD
:102A700011C0772321F09EE8872F762F05C06623AB
:102A800071F096E8862F70E060E02AF09A95660F64
:102A9000771F881FDAF7880F9695879597F908951D
:102AA000990F0008550FAA0BE0E8FEEF161617065F
:102AB000E807F907C0F012161306E407F50798F0C7
:102AC000621B730B840B950B39F40A2661F0232BE0
:102AD000242B252B21F408950A2609F4A140A6955C
:102AE0008FEF811D811D08950E9487150C94F815A4
:102AF0000E94EA1538F00E94F11520F0952311F09C
:102B00000C94E1150C94E71511240C942C160E94DA
:102B1000091670F3959FC1F3950F50E0551F629F02
:102B2000F001729FBB27F00DB11D639FAA27F00D26
:102B3000B11DAA1F649F6627B00DA11D661F829F4D
:102B40002227B00DA11D621F739FB00DA11D621F32
:102B5000839FA00D611D221F749F3327A00D611D4F
:102B6000231F849F600D211D822F762F6A2F112431
:102B70009F5750409AF0F1F088234AF0EE0FFF1F64
:102B8000BB1F661F771F881F91505040A9F79E3FBB
:102B9000510580F00C94E1150C942C165F3FE4F382
:102BA000983ED4F3869577956795B795F795E79511
:102BB0009F5FC1F7FE2B880F911D9695879597F91A
:102BC000089597F99F6780E870E060E008959FEFAF
:102BD00080EC089500240A941616170618060906B4
:102BE000089500240A941216130614060506089583
:102BF000092E0394000C11F4882352F0BB0F40F40B
:102C0000BF2B11F460FF04C06F5F7F4F8F4F9F4F4A
:102C1000089557FD9058440F551F59F05F3F71F0CC
:102C20004795880F97FB991F61F09F3F79F0879533
:102C30000895121613061406551FF2CF4695F1DFBC
:102C400008C0161617061806991FF1CF869571054C
:102C5000610508940895E894BB2766277727CB0180
:102C600097F908955058BB27AA270E944A160C943A
:102C7000F8150E94EA1538F00E94F11520F039F499
:102C80009F3F19F426F40C94E7150EF4E095E7FB4A
:102C90000C94E115E92F0E94091658F3BA17620740
:102CA00073078407950720F079F4A6F50C942B168A
:102CB0000EF4E0950B2EBA2FA02D0B01B901900157
:102CC0000C01CA01A0011124FF27591B99F0593F9B
:102CD00050F4503E68F11A16F040A22F232F342FE3
:102CE0004427585FF3CF469537952795A795F04031
:102CF0005395C9F77EF41F16BA0B620B730B840B46
:102D0000BAF09150A1F0FF0FBB1F661F771F881FFD
:102D1000C2F70EC0BA0F621F731F841F48F4879555
:102D200077956795B795F7959E3F08F0B0CF939547
:102D3000880F08F09927EE0F9795879508950E94C0
:102D4000B3160C94F8150E94F11558F00E94EA157C
:102D500040F029F45F3F29F00C94E11551110C94D7
:102D60002C160C94E7150E94091668F39923B1F309
:102D7000552391F3951B550BBB27AA2762177307A1
:102D8000840738F09F5F5F4F220F331F441FAA1F35
:102D9000A9F335D00E2E3AF0E0E832D091505040F1
:102DA000E695001CCAF72BD0FE2F29D0660F771F9F
:102DB000881FBB1F261737074807AB07B0E809F085
:102DC000BB0B802DBF01FF2793585F4F3AF09E3F0A
:102DD000510578F00C94E1150C942C165F3FE4F348
:102DE000983ED4F3869577956795B795F7959F5F4D
:102DF000C9F7880F911D9695879597F90895E1E099
:102E0000660F771F881FBB1F621773078407BA07F7
:102E100020F0621B730B840BBA0BEE1F88F7E09552
:102E200008950E94111688F09F5798F0B92F99279E
:102E3000B751B0F0E1F0660F771F881F991F1AF0A5
:102E4000BA95C9F714C0B13091F00E942B16B1E0C9
:102E500008950C942B16672F782F8827B85F39F0C8
:102E6000B93FCCF3869577956795B395D9F73EF43E
:102E700090958095709561957F4F8F4F9F4F0895E6
:102E80000E94501508F48FEF0895002E083090F03E
:102E9000982F872F762F652F542F432F322F2227DD
:102EA0000850F4CF220F331F441F551F661F771F92
:102EB000881F991F0A95B2F7002D08952A0D3B1D12
:102EC0004C1D5D1D6E1D7F1D801F911F08952A15CD
:102ED0003B054C055D056E057F058007910708954C
:102EE000EE0FFF1F0590F491E02D09940F931F93AF
:102EF000CF93DF938230910510F482E090E0E0916F
:102F0000BC03F091BD0330E020E0B0E0A0E03097DA
:102F100099F42115310509F44AC0281B390B2430D6
:102F20003105D8F58A819B816115710589F1FB0115
:102F300093838283FE0111C04081518102811381FC
:102F400048175907E0F04817590799F4109761F0AE
:102F500012960C93129713961C933296CF01DF9121
:102F6000CF911F910F9108950093BC031093BD035F
:102F7000F4CF2115310551F04217530738F0A9015C
:102F8000DB019A01BD01DF01F801C1CFEF01F9CFEB
:102F90009093BD038093BC03CDCFFE01E20FF31FDE
:102FA000819391932250310939832883D7CF20917F
:102FB000BA033091BB03232B41F420911E013091C1
:102FC0001F013093BB032093BA0320911C01309161
:102FD0001D012115310541F42DB73EB74091200167
:102FE00050912101241B350BE091BA03F091BB03F2
:102FF000E217F307A0F42E1B3F0B2817390778F0D0
:10300000AC014E5F5F4F2417350748F04E0F5F1F2E
:103010005093BB034093BA03819391939FCFF0E009
:10302000E0E09CCFCF93DF930097E9F0FC0132976B
:1030300013821282A091BC03B091BD03ED0130E078
:1030400020E01097A1F420813181820F931F2091FD
:10305000BA033091BB032817390709F061C0F09318
:10306000BB03E093BA03DF91CF910895EA01CE1735
:10307000DF07E8F54A815B819E0141155105B1F7F3
:10308000E901FB83EA8349915991C40FD51FEC17DD
:10309000FD0761F4808191810296840F951FE901FB
:1030A00099838883828193819B838A83F0E0E0E027
:1030B00012968D919C9113970097B9F52D913C91A3
:1030C0001197CD010296820F931F2091BA03309180
:1030D000BB032817390739F6309751F51092BD0315
:1030E0001092BC03B093BB03A093BA03BCCFD383AD
:1030F000C28340815181840F951FC817D90761F49D
:103100004E5F5F4F88819981480F591F51834083DB
:103110008A819B81938382832115310509F0B0CF89
:10312000F093BD03E093BC039ECFFD01DC01C0CF53
:0A31300013821282D7CFF894FFCF6C
:10313A00F000F000000001019001260100000000EB
:10314A001400C8009001E803E803C8000000BE03A9
:10315A00800000000000F703F403B003A6039C03F9
:10316A00000000007E019E00CB00CB013C01DA008A
:10317A002E0100000000C2039503F1036B038E03C6
:04318A007B036C0354
:00000001FF
